{
  "_format": "hh-sol-artifact-1",
  "contractName": "FileNFT",
  "sourceName": "contracts/autorecover.sol",
  "abi": [
    {
      "inputs": [],
      "stateMutability": "nonpayable",
      "type": "constructor"
    },
    {
      "anonymous": false,
      "inputs": [
        {
          "indexed": true,
          "internalType": "address",
          "name": "owner",
          "type": "address"
        },
        {
          "indexed": true,
          "internalType": "address",
          "name": "approved",
          "type": "address"
        },
        {
          "indexed": true,
          "internalType": "uint256",
          "name": "tokenId",
          "type": "uint256"
        }
      ],
      "name": "Approval",
      "type": "event"
    },
    {
      "anonymous": false,
      "inputs": [
        {
          "indexed": true,
          "internalType": "address",
          "name": "owner",
          "type": "address"
        },
        {
          "indexed": true,
          "internalType": "address",
          "name": "operator",
          "type": "address"
        },
        {
          "indexed": false,
          "internalType": "bool",
          "name": "approved",
          "type": "bool"
        }
      ],
      "name": "ApprovalForAll",
      "type": "event"
    },
    {
      "anonymous": false,
      "inputs": [
        {
          "indexed": false,
          "internalType": "address",
          "name": "account",
          "type": "address"
        }
      ],
      "name": "MonthlyPaymentMade",
      "type": "event"
    },
    {
      "anonymous": false,
      "inputs": [
        {
          "indexed": true,
          "internalType": "uint256",
          "name": "tokenId",
          "type": "uint256"
        },
        {
          "indexed": false,
          "internalType": "address",
          "name": "owner",
          "type": "address"
        },
        {
          "indexed": false,
          "internalType": "address",
          "name": "storageDrive",
          "type": "address"
        },
        {
          "indexed": false,
          "internalType": "bool",
          "name": "claimed",
          "type": "bool"
        }
      ],
      "name": "StorageItemCreated",
      "type": "event"
    },
    {
      "anonymous": false,
      "inputs": [
        {
          "indexed": false,
          "internalType": "address",
          "name": "account",
          "type": "address"
        }
      ],
      "name": "SubscriptionMade",
      "type": "event"
    },
    {
      "anonymous": false,
      "inputs": [
        {
          "indexed": true,
          "internalType": "address",
          "name": "from",
          "type": "address"
        },
        {
          "indexed": true,
          "internalType": "address",
          "name": "to",
          "type": "address"
        },
        {
          "indexed": true,
          "internalType": "uint256",
          "name": "tokenId",
          "type": "uint256"
        }
      ],
      "name": "Transfer",
      "type": "event"
    },
    {
      "inputs": [
        {
          "internalType": "address",
          "name": "to",
          "type": "address"
        },
        {
          "internalType": "uint256",
          "name": "tokenId",
          "type": "uint256"
        }
      ],
      "name": "approve",
      "outputs": [],
      "stateMutability": "nonpayable",
      "type": "function"
    },
    {
      "inputs": [
        {
          "internalType": "address",
          "name": "owner",
          "type": "address"
        }
      ],
      "name": "balanceOf",
      "outputs": [
        {
          "internalType": "uint256",
          "name": "",
          "type": "uint256"
        }
      ],
      "stateMutability": "view",
      "type": "function"
    },
    {
      "inputs": [
        {
          "internalType": "string",
          "name": "tokenURI",
          "type": "string"
        }
      ],
      "name": "createFile",
      "outputs": [
        {
          "internalType": "uint256",
          "name": "",
          "type": "uint256"
        }
      ],
      "stateMutability": "payable",
      "type": "function"
    },
    {
      "inputs": [
        {
          "internalType": "uint256",
          "name": "tokenId",
          "type": "uint256"
        }
      ],
      "name": "createFileShare",
      "outputs": [],
      "stateMutability": "payable",
      "type": "function"
    },
    {
      "inputs": [],
      "name": "fetchAllStorageItems",
      "outputs": [
        {
          "components": [
            {
              "internalType": "uint256",
              "name": "tokenId",
              "type": "uint256"
            },
            {
              "internalType": "address",
              "name": "owner",
              "type": "address"
            },
            {
              "internalType": "address",
              "name": "storageDrive",
              "type": "address"
            },
            {
              "internalType": "bool",
              "name": "claimed",
              "type": "bool"
            }
          ],
          "internalType": "struct FileNFT.StorageItem[]",
          "name": "",
          "type": "tuple[]"
        }
      ],
      "stateMutability": "view",
      "type": "function"
    },
    {
      "inputs": [],
      "name": "fetchMyFiles",
      "outputs": [
        {
          "components": [
            {
              "internalType": "uint256",
              "name": "tokenId",
              "type": "uint256"
            },
            {
              "internalType": "address",
              "name": "owner",
              "type": "address"
            },
            {
              "internalType": "address",
              "name": "storageDrive",
              "type": "address"
            },
            {
              "internalType": "bool",
              "name": "claimed",
              "type": "bool"
            }
          ],
          "internalType": "struct FileNFT.StorageItem[]",
          "name": "",
          "type": "tuple[]"
        }
      ],
      "stateMutability": "view",
      "type": "function"
    },
    {
      "inputs": [
        {
          "internalType": "uint256",
          "name": "_tokenId",
          "type": "uint256"
        }
      ],
      "name": "fetchOneNFT",
      "outputs": [
        {
          "components": [
            {
              "internalType": "uint256",
              "name": "tokenId",
              "type": "uint256"
            },
            {
              "internalType": "address",
              "name": "owner",
              "type": "address"
            },
            {
              "internalType": "address",
              "name": "storageDrive",
              "type": "address"
            },
            {
              "internalType": "bool",
              "name": "claimed",
              "type": "bool"
            }
          ],
          "internalType": "struct FileNFT.StorageItem[]",
          "name": "",
          "type": "tuple[]"
        }
      ],
      "stateMutability": "view",
      "type": "function"
    },
    {
      "inputs": [
        {
          "internalType": "uint256",
          "name": "tokenId",
          "type": "uint256"
        }
      ],
      "name": "getApproved",
      "outputs": [
        {
          "internalType": "address",
          "name": "",
          "type": "address"
        }
      ],
      "stateMutability": "view",
      "type": "function"
    },
    {
      "inputs": [
        {
          "internalType": "address",
          "name": "owner",
          "type": "address"
        },
        {
          "internalType": "address",
          "name": "operator",
          "type": "address"
        }
      ],
      "name": "isApprovedForAll",
      "outputs": [
        {
          "internalType": "bool",
          "name": "",
          "type": "bool"
        }
      ],
      "stateMutability": "view",
      "type": "function"
    },
    {
      "inputs": [],
      "name": "name",
      "outputs": [
        {
          "internalType": "string",
          "name": "",
          "type": "string"
        }
      ],
      "stateMutability": "view",
      "type": "function"
    },
    {
      "inputs": [
        {
          "internalType": "uint256",
          "name": "tokenId",
          "type": "uint256"
        }
      ],
      "name": "ownerOf",
      "outputs": [
        {
          "internalType": "address",
          "name": "",
          "type": "address"
        }
      ],
      "stateMutability": "view",
      "type": "function"
    },
    {
      "inputs": [],
      "name": "payMonthlyValue",
      "outputs": [],
      "stateMutability": "payable",
      "type": "function"
    },
    {
      "inputs": [
        {
          "internalType": "address",
          "name": "from",
          "type": "address"
        },
        {
          "internalType": "address",
          "name": "to",
          "type": "address"
        },
        {
          "internalType": "uint256",
          "name": "tokenId",
          "type": "uint256"
        }
      ],
      "name": "safeTransferFrom",
      "outputs": [],
      "stateMutability": "nonpayable",
      "type": "function"
    },
    {
      "inputs": [
        {
          "internalType": "address",
          "name": "from",
          "type": "address"
        },
        {
          "internalType": "address",
          "name": "to",
          "type": "address"
        },
        {
          "internalType": "uint256",
          "name": "tokenId",
          "type": "uint256"
        },
        {
          "internalType": "bytes",
          "name": "data",
          "type": "bytes"
        }
      ],
      "name": "safeTransferFrom",
      "outputs": [],
      "stateMutability": "nonpayable",
      "type": "function"
    },
    {
      "inputs": [
        {
          "internalType": "address",
          "name": "operator",
          "type": "address"
        },
        {
          "internalType": "bool",
          "name": "approved",
          "type": "bool"
        }
      ],
      "name": "setApprovalForAll",
      "outputs": [],
      "stateMutability": "nonpayable",
      "type": "function"
    },
    {
      "inputs": [],
      "name": "subscribe",
      "outputs": [],
      "stateMutability": "payable",
      "type": "function"
    },
    {
      "inputs": [
        {
          "internalType": "bytes4",
          "name": "interfaceId",
          "type": "bytes4"
        }
      ],
      "name": "supportsInterface",
      "outputs": [
        {
          "internalType": "bool",
          "name": "",
          "type": "bool"
        }
      ],
      "stateMutability": "view",
      "type": "function"
    },
    {
      "inputs": [],
      "name": "symbol",
      "outputs": [
        {
          "internalType": "string",
          "name": "",
          "type": "string"
        }
      ],
      "stateMutability": "view",
      "type": "function"
    },
    {
      "inputs": [
        {
          "internalType": "uint256",
          "name": "tokenId",
          "type": "uint256"
        }
      ],
      "name": "tokenURI",
      "outputs": [
        {
          "internalType": "string",
          "name": "",
          "type": "string"
        }
      ],
      "stateMutability": "view",
      "type": "function"
    },
    {
      "inputs": [
        {
          "internalType": "address",
          "name": "from",
          "type": "address"
        },
        {
          "internalType": "address",
          "name": "to",
          "type": "address"
        },
        {
          "internalType": "uint256",
          "name": "tokenId",
          "type": "uint256"
        }
      ],
      "name": "transferFrom",
      "outputs": [],
      "stateMutability": "nonpayable",
      "type": "function"
    },
    {
      "inputs": [
        {
          "internalType": "uint256",
          "name": "value",
          "type": "uint256"
        }
      ],
      "name": "withdraw",
      "outputs": [],
      "stateMutability": "nonpayable",
      "type": "function"
    }
  ],
  "bytecode": "0x60806040523480156200001157600080fd5b50604080518082018252600b81526a20baba37a932b1b7bb32b960a91b60208083019182528351808501909452600384526220a92b60e91b908401528151919291620000609160009162000098565b5080516200007690600190602084019062000098565b5050600a80546001600160a01b0319163317905550620186a06009556200017b565b828054620000a6906200013e565b90600052602060002090601f016020900481019282620000ca576000855562000115565b82601f10620000e557805160ff191683800117855562000115565b8280016001018555821562000115579182015b8281111562000115578251825591602001919060010190620000f8565b506200012392915062000127565b5090565b5b8082111562000123576000815560010162000128565b600181811c908216806200015357607f821691505b602082108114156200017557634e487b7160e01b600052602260045260246000fd5b50919050565b61203e806200018b6000396000f3fe60806040526004361061012a5760003560e01c80634dfdc4fb116100ab57806395d89b411161006f57806395d89b41146102fb578063a22cb46514610310578063b796fc6814610330578063b88d4fde14610350578063c87b56dd14610370578063e985e9c51461039057600080fd5b80634dfdc4fb1461027d5780636352211e1461029e57806370a08231146102be5780638f449a05146102de578063957b5ba3146102e657600080fd5b806323b872dd116100f257806323b872dd146101f35780632e1a7d4d14610213578063347cfeab1461023357806337a899861461023b57806342842e0e1461025d57600080fd5b806301ffc9a71461012f57806306fdde03146101645780630778fa4d14610186578063081812fc1461019b578063095ea7b3146101d3575b600080fd5b34801561013b57600080fd5b5061014f61014a366004611a80565b6103d9565b60405190151581526020015b60405180910390f35b34801561017057600080fd5b5061017961042b565b60405161015b9190611af5565b610199610194366004611b08565b6104bd565b005b3480156101a757600080fd5b506101bb6101b6366004611b08565b6104f0565b6040516001600160a01b03909116815260200161015b565b3480156101df57600080fd5b506101996101ee366004611b3d565b610517565b3480156101ff57600080fd5b5061019961020e366004611b67565b610632565b34801561021f57600080fd5b5061019961022e366004611b08565b610663565b6101996107aa565b34801561024757600080fd5b50610250610878565b60405161015b9190611ba3565b34801561026957600080fd5b50610199610278366004611b67565b6109e6565b61029061028b366004611ca1565b610a01565b60405190815260200161015b565b3480156102aa57600080fd5b506101bb6102b9366004611b08565b610a3b565b3480156102ca57600080fd5b506102906102d9366004611cea565b610a9b565b610199610b21565b3480156102f257600080fd5b50610250610bcc565b34801561030757600080fd5b50610179610d9c565b34801561031c57600080fd5b5061019961032b366004611d05565b610dab565b34801561033c57600080fd5b5061025061034b366004611b08565b610db6565b34801561035c57600080fd5b5061019961036b366004611d41565b610f71565b34801561037c57600080fd5b5061017961038b366004611b08565b610fa9565b34801561039c57600080fd5b5061014f6103ab366004611dbd565b6001600160a01b03918216600090815260056020908152604080832093909416825291909152205460ff1690565b60006001600160e01b031982166380ac58cd60e01b148061040a57506001600160e01b03198216635b5e139f60e01b145b8061042557506301ffc9a760e01b6001600160e01b03198316145b92915050565b60606000805461043a90611df0565b80601f016020809104026020016040519081016040528092919081815260200182805461046690611df0565b80156104b35780601f10610488576101008083540402835291602001916104b3565b820191906000526020600020905b81548152906001019060200180831161049657829003601f168201915b5050505050905090565b6000818152600c60205260409020600201805460ff60a01b1916600160a01b1790556104ed600880546001019055565b50565b60006104fb826110ba565b506000908152600460205260409020546001600160a01b031690565b600061052282610a3b565b9050806001600160a01b0316836001600160a01b031614156105955760405162461bcd60e51b815260206004820152602160248201527f4552433732313a20617070726f76616c20746f2063757272656e74206f776e656044820152603960f91b60648201526084015b60405180910390fd5b336001600160a01b03821614806105b157506105b181336103ab565b6106235760405162461bcd60e51b815260206004820152603e60248201527f4552433732313a20617070726f76652063616c6c6572206973206e6f7420746f60448201527f6b656e206f776e6572206e6f7220617070726f76656420666f7220616c6c0000606482015260840161058c565b61062d8383611119565b505050565b61063c3382611187565b6106585760405162461bcd60e51b815260040161058c90611e2b565b61062d838383611205565b600a546001600160a01b031633146106bd5760405162461bcd60e51b815260206004820152601860248201527f41646472657373206973206e6f7420746865206f776e65720000000000000000604482015260640161058c565b4781111561070d5760405162461bcd60e51b815260206004820152601a60248201527f56616c756520686967686572207468616e2062616c616e63652e000000000000604482015260640161058c565b600a546040516000916001600160a01b03169083908381818185875af1925050503d806000811461075a576040519150601f19603f3d011682016040523d82523d6000602084013e61075f565b606091505b50509050806107a65760405162461bcd60e51b815260206004820152601360248201527254686572652077617320616e206572726f722160681b604482015260640161058c565b5050565b336000908152600b602052604090205460ff166108025760405162461bcd60e51b81526020600482015260166024820152751058d8dbdd5b9d081b9bdd081cdd589cd8dc9a58995960521b604482015260640161058c565b60095434146108425760405162461bcd60e51b815260206004820152600c60248201526b2bb937b733903b30b63ab29760a11b604482015260640161058c565b6040513381527f342391d881b260faba344bcdceb81718335063790ef64b017dfe1fbec5eb7d91906020015b60405180910390a1565b6060600061088560075490565b90506000808267ffffffffffffffff8111156108a3576108a3611c15565b6040519080825280602002602001820160405280156108f557816020015b6040805160808101825260008082526020808301829052928201819052606082015282526000199092019101816108c15790505b50905060005b838110156109de5730600c6000610913846001611e8f565b81526020810191909152604001600020600201546001600160a01b031614156109cc576000610943826001611e8f565b6000818152600c602090815260409182902082516080810184528154815260018201546001600160a01b0390811693820193909352600282015492831693810193909352600160a01b90910460ff16151560608301528551929350918590879081106109b1576109b1611ea7565b60209081029190910101526109c7600186611e8f565b945050505b806109d681611ebd565b9150506108fb565b509392505050565b61062d83838360405180602001604052806000815250610f71565b6000610a11600780546001019055565b6000610a1c60075490565b9050610a2833826113a1565b610a3281846114e3565b6104258161157d565b6000818152600260205260408120546001600160a01b0316806104255760405162461bcd60e51b8152602060048201526018602482015277115490cdcc8c4e881a5b9d985b1a59081d1bdad95b88125160421b604482015260640161058c565b60006001600160a01b038216610b055760405162461bcd60e51b815260206004820152602960248201527f4552433732313a2061646472657373207a65726f206973206e6f7420612076616044820152683634b21037bbb732b960b91b606482015260840161058c565b506001600160a01b031660009081526003602052604090205490565b336000908152600b602052604090205460ff1615610b815760405162461bcd60e51b815260206004820152601a60248201527f4163636f756e7420616c72656164792073756273637269626564000000000000604482015260640161058c565b336000818152600b6020908152604091829020805460ff1916600117905590519182527f0a4aaad73235c04f36913f1a722df062186fab3d31654a6d28265e505d9e1613910161086e565b60606000610bd960075490565b905060008060005b83811015610c3c5733600c6000610bf9846001611e8f565b81526020810191909152604001600020600101546001600160a01b03161415610c2a57610c27600184611e8f565b92505b80610c3481611ebd565b915050610be1565b5060008267ffffffffffffffff811115610c5857610c58611c15565b604051908082528060200260200182016040528015610caa57816020015b604080516080810182526000808252602080830182905292820181905260608201528252600019909201910181610c765790505b50905060005b84811015610d935733600c6000610cc8846001611e8f565b81526020810191909152604001600020600101546001600160a01b03161415610d81576000610cf8826001611e8f565b6000818152600c602090815260409182902082516080810184528154815260018201546001600160a01b0390811693820193909352600282015492831693810193909352600160a01b90910460ff1615156060830152855192935091859087908110610d6657610d66611ea7565b6020908102919091010152610d7c600186611e8f565b945050505b80610d8b81611ebd565b915050610cb0565b50949350505050565b60606001805461043a90611df0565b6107a6338383611650565b60606000610dc360075490565b905060008060005b83811015610e1b5785600c6000610de3846001611e8f565b8152602001908152602001600020600001541415610e0957610e06600184611e8f565b92505b80610e1381611ebd565b915050610dcb565b5060008267ffffffffffffffff811115610e3757610e37611c15565b604051908082528060200260200182016040528015610e8957816020015b604080516080810182526000808252602080830182905292820181905260608201528252600019909201910181610e555790505b50905060005b84811015610f675786600c6000610ea7846001611e8f565b8152602001908152602001600020600001541415610f55576000610ecc826001611e8f565b6000818152600c602090815260409182902082516080810184528154815260018201546001600160a01b0390811693820193909352600282015492831693810193909352600160a01b90910460ff1615156060830152855192935091859087908110610f3a57610f3a611ea7565b6020908102919091010152610f50600186611e8f565b945050505b80610f5f81611ebd565b915050610e8f565b5095945050505050565b610f7b3383611187565b610f975760405162461bcd60e51b815260040161058c90611e2b565b610fa38484848461171f565b50505050565b6060610fb4826110ba565b60008281526006602052604081208054610fcd90611df0565b80601f0160208091040260200160405190810160405280929190818152602001828054610ff990611df0565b80156110465780601f1061101b57610100808354040283529160200191611046565b820191906000526020600020905b81548152906001019060200180831161102957829003601f168201915b50505050509050600061106460408051602081019091526000815290565b9050805160001415611077575092915050565b8151156110a9578082604051602001611091929190611ed8565b60405160208183030381529060405292505050919050565b6110b284611752565b949350505050565b6000818152600260205260409020546001600160a01b03166104ed5760405162461bcd60e51b8152602060048201526018602482015277115490cdcc8c4e881a5b9d985b1a59081d1bdad95b88125160421b604482015260640161058c565b600081815260046020526040902080546001600160a01b0319166001600160a01b038416908117909155819061114e82610a3b565b6001600160a01b03167f8c5be1e5ebec7d5bd14f71427d1e84f3dd0314c0f7b2291e5b200ac8c7c3b92560405160405180910390a45050565b60008061119383610a3b565b9050806001600160a01b0316846001600160a01b031614806111da57506001600160a01b0380821660009081526005602090815260408083209388168352929052205460ff165b806110b25750836001600160a01b03166111f3846104f0565b6001600160a01b031614949350505050565b826001600160a01b031661121882610a3b565b6001600160a01b03161461127c5760405162461bcd60e51b815260206004820152602560248201527f4552433732313a207472616e736665722066726f6d20696e636f72726563742060448201526437bbb732b960d91b606482015260840161058c565b6001600160a01b0382166112de5760405162461bcd60e51b8152602060048201526024808201527f4552433732313a207472616e7366657220746f20746865207a65726f206164646044820152637265737360e01b606482015260840161058c565b6112e9600082611119565b6001600160a01b0383166000908152600360205260408120805460019290611312908490611f07565b90915550506001600160a01b0382166000908152600360205260408120805460019290611340908490611e8f565b909155505060008181526002602052604080822080546001600160a01b0319166001600160a01b0386811691821790925591518493918716917fddf252ad1be2c89b69c2b068fc378daa952ba7f163c4a11628f55a4df523b3ef91a4505050565b6001600160a01b0382166113f75760405162461bcd60e51b815260206004820181905260248201527f4552433732313a206d696e7420746f20746865207a65726f2061646472657373604482015260640161058c565b6000818152600260205260409020546001600160a01b03161561145c5760405162461bcd60e51b815260206004820152601c60248201527f4552433732313a20746f6b656e20616c7265616479206d696e74656400000000604482015260640161058c565b6001600160a01b0382166000908152600360205260408120805460019290611485908490611e8f565b909155505060008181526002602052604080822080546001600160a01b0319166001600160a01b03861690811790915590518392907fddf252ad1be2c89b69c2b068fc378daa952ba7f163c4a11628f55a4df523b3ef908290a45050565b6000828152600260205260409020546001600160a01b031661155e5760405162461bcd60e51b815260206004820152602e60248201527f45524337323155524953746f726167653a2055524920736574206f66206e6f6e60448201526d32bc34b9ba32b73a103a37b5b2b760911b606482015260840161058c565b6000828152600660209081526040909120825161062d928401906119d1565b6040805160808101825282815233602080830182815230848601818152600060608701818152898252600c909552969096209451855590516001850180546001600160a01b039283166001600160a01b031990911617905594516002909401805492511515600160a01b026001600160a81b031990931694909516939093171790925561160b919083611205565b60408051338152306020820152600081830152905182917fa68363aa99d6435522e6dc97031114bda913322276d4240fb702c2543bbfd86b919081900360600190a250565b816001600160a01b0316836001600160a01b031614156116b25760405162461bcd60e51b815260206004820152601960248201527f4552433732313a20617070726f766520746f2063616c6c657200000000000000604482015260640161058c565b6001600160a01b03838116600081815260056020908152604080832094871680845294825291829020805460ff191686151590811790915591519182527f17307eab39ab6107e8899845ad3d59bd9653f200f220920489ca2b5937696c31910160405180910390a3505050565b61172a848484611205565b611736848484846117c6565b610fa35760405162461bcd60e51b815260040161058c90611f1e565b606061175d826110ba565b600061177460408051602081019091526000815290565b9050600081511161179457604051806020016040528060008152506117bf565b8061179e846118d3565b6040516020016117af929190611ed8565b6040516020818303038152906040525b9392505050565b60006001600160a01b0384163b156118c857604051630a85bd0160e11b81526001600160a01b0385169063150b7a029061180a903390899088908890600401611f70565b602060405180830381600087803b15801561182457600080fd5b505af1925050508015611854575060408051601f3d908101601f1916820190925261185191810190611fad565b60015b6118ae573d808015611882576040519150601f19603f3d011682016040523d82523d6000602084013e611887565b606091505b5080516118a65760405162461bcd60e51b815260040161058c90611f1e565b805181602001fd5b6001600160e01b031916630a85bd0160e11b1490506110b2565b506001949350505050565b6060816118f75750506040805180820190915260018152600360fc1b602082015290565b8160005b8115611921578061190b81611ebd565b915061191a9050600a83611fe0565b91506118fb565b60008167ffffffffffffffff81111561193c5761193c611c15565b6040519080825280601f01601f191660200182016040528015611966576020820181803683370190505b5090505b84156110b25761197b600183611f07565b9150611988600a86611ff4565b611993906030611e8f565b60f81b8183815181106119a8576119a8611ea7565b60200101906001600160f81b031916908160001a9053506119ca600a86611fe0565b945061196a565b8280546119dd90611df0565b90600052602060002090601f0160209004810192826119ff5760008555611a45565b82601f10611a1857805160ff1916838001178555611a45565b82800160010185558215611a45579182015b82811115611a45578251825591602001919060010190611a2a565b50611a51929150611a55565b5090565b5b80821115611a515760008155600101611a56565b6001600160e01b0319811681146104ed57600080fd5b600060208284031215611a9257600080fd5b81356117bf81611a6a565b60005b83811015611ab8578181015183820152602001611aa0565b83811115610fa35750506000910152565b60008151808452611ae1816020860160208601611a9d565b601f01601f19169290920160200192915050565b6020815260006117bf6020830184611ac9565b600060208284031215611b1a57600080fd5b5035919050565b80356001600160a01b0381168114611b3857600080fd5b919050565b60008060408385031215611b5057600080fd5b611b5983611b21565b946020939093013593505050565b600080600060608486031215611b7c57600080fd5b611b8584611b21565b9250611b9360208501611b21565b9150604084013590509250925092565b602080825282518282018190526000919060409081850190868401855b82811015611c0857815180518552868101516001600160a01b039081168887015286820151168686015260609081015115159085015260809093019290850190600101611bc0565b5091979650505050505050565b634e487b7160e01b600052604160045260246000fd5b600067ffffffffffffffff80841115611c4657611c46611c15565b604051601f8501601f19908116603f01168101908282118183101715611c6e57611c6e611c15565b81604052809350858152868686011115611c8757600080fd5b858560208301376000602087830101525050509392505050565b600060208284031215611cb357600080fd5b813567ffffffffffffffff811115611cca57600080fd5b8201601f81018413611cdb57600080fd5b6110b284823560208401611c2b565b600060208284031215611cfc57600080fd5b6117bf82611b21565b60008060408385031215611d1857600080fd5b611d2183611b21565b915060208301358015158114611d3657600080fd5b809150509250929050565b60008060008060808587031215611d5757600080fd5b611d6085611b21565b9350611d6e60208601611b21565b925060408501359150606085013567ffffffffffffffff811115611d9157600080fd5b8501601f81018713611da257600080fd5b611db187823560208401611c2b565b91505092959194509250565b60008060408385031215611dd057600080fd5b611dd983611b21565b9150611de760208401611b21565b90509250929050565b600181811c90821680611e0457607f821691505b60208210811415611e2557634e487b7160e01b600052602260045260246000fd5b50919050565b6020808252602e908201527f4552433732313a2063616c6c6572206973206e6f7420746f6b656e206f776e6560408201526d1c881b9bdc88185c1c1c9bdd995960921b606082015260800190565b634e487b7160e01b600052601160045260246000fd5b60008219821115611ea257611ea2611e79565b500190565b634e487b7160e01b600052603260045260246000fd5b6000600019821415611ed157611ed1611e79565b5060010190565b60008351611eea818460208801611a9d565b835190830190611efe818360208801611a9d565b01949350505050565b600082821015611f1957611f19611e79565b500390565b60208082526032908201527f4552433732313a207472616e7366657220746f206e6f6e20455243373231526560408201527131b2b4bb32b91034b6b83632b6b2b73a32b960711b606082015260800190565b6001600160a01b0385811682528416602082015260408101839052608060608201819052600090611fa390830184611ac9565b9695505050505050565b600060208284031215611fbf57600080fd5b81516117bf81611a6a565b634e487b7160e01b600052601260045260246000fd5b600082611fef57611fef611fca565b500490565b60008261200357612003611fca565b50069056fea26469706673582212203b0db69744e445d9585e8a8872e1e46a9d6397d55256ca2ea9f7beb7355fda5164736f6c63430008090033",
  "linkReferences": {},
  "deployedLinkReferences": {}
}